{
  "_format": "hh-sol-artifact-1",
  "contractName": "CarNFT",
  "sourceName": "contracts/CarNFT.sol",
  "abi": [
    {
      "inputs": [],
      "stateMutability": "nonpayable",
      "type": "constructor"
    },
    {
      "inputs": [
        {
          "internalType": "address",
          "name": "sender",
          "type": "address"
        },
        {
          "internalType": "uint256",
          "name": "tokenId",
          "type": "uint256"
        },
        {
          "internalType": "address",
          "name": "owner",
          "type": "address"
        }
      ],
      "name": "ERC721IncorrectOwner",
      "type": "error"
    },
    {
      "inputs": [
        {
          "internalType": "address",
          "name": "operator",
          "type": "address"
        },
        {
          "internalType": "uint256",
          "name": "tokenId",
          "type": "uint256"
        }
      ],
      "name": "ERC721InsufficientApproval",
      "type": "error"
    },
    {
      "inputs": [
        {
          "internalType": "address",
          "name": "approver",
          "type": "address"
        }
      ],
      "name": "ERC721InvalidApprover",
      "type": "error"
    },
    {
      "inputs": [
        {
          "internalType": "address",
          "name": "operator",
          "type": "address"
        }
      ],
      "name": "ERC721InvalidOperator",
      "type": "error"
    },
    {
      "inputs": [
        {
          "internalType": "address",
          "name": "owner",
          "type": "address"
        }
      ],
      "name": "ERC721InvalidOwner",
      "type": "error"
    },
    {
      "inputs": [
        {
          "internalType": "address",
          "name": "receiver",
          "type": "address"
        }
      ],
      "name": "ERC721InvalidReceiver",
      "type": "error"
    },
    {
      "inputs": [
        {
          "internalType": "address",
          "name": "sender",
          "type": "address"
        }
      ],
      "name": "ERC721InvalidSender",
      "type": "error"
    },
    {
      "inputs": [
        {
          "internalType": "uint256",
          "name": "tokenId",
          "type": "uint256"
        }
      ],
      "name": "ERC721NonexistentToken",
      "type": "error"
    },
    {
      "inputs": [],
      "name": "ExceedsMaxSupply",
      "type": "error"
    },
    {
      "inputs": [
        {
          "internalType": "address",
          "name": "owner",
          "type": "address"
        }
      ],
      "name": "OwnableInvalidOwner",
      "type": "error"
    },
    {
      "inputs": [
        {
          "internalType": "address",
          "name": "account",
          "type": "address"
        }
      ],
      "name": "OwnableUnauthorizedAccount",
      "type": "error"
    },
    {
      "inputs": [],
      "name": "URIQueryForNonexistentToken",
      "type": "error"
    },
    {
      "anonymous": false,
      "inputs": [
        {
          "indexed": true,
          "internalType": "address",
          "name": "owner",
          "type": "address"
        },
        {
          "indexed": true,
          "internalType": "address",
          "name": "approved",
          "type": "address"
        },
        {
          "indexed": true,
          "internalType": "uint256",
          "name": "tokenId",
          "type": "uint256"
        }
      ],
      "name": "Approval",
      "type": "event"
    },
    {
      "anonymous": false,
      "inputs": [
        {
          "indexed": true,
          "internalType": "address",
          "name": "owner",
          "type": "address"
        },
        {
          "indexed": true,
          "internalType": "address",
          "name": "operator",
          "type": "address"
        },
        {
          "indexed": false,
          "internalType": "bool",
          "name": "approved",
          "type": "bool"
        }
      ],
      "name": "ApprovalForAll",
      "type": "event"
    },
    {
      "anonymous": false,
      "inputs": [
        {
          "indexed": true,
          "internalType": "address",
          "name": "previousOwner",
          "type": "address"
        },
        {
          "indexed": true,
          "internalType": "address",
          "name": "newOwner",
          "type": "address"
        }
      ],
      "name": "OwnershipTransferred",
      "type": "event"
    },
    {
      "anonymous": false,
      "inputs": [
        {
          "indexed": true,
          "internalType": "address",
          "name": "from",
          "type": "address"
        },
        {
          "indexed": true,
          "internalType": "address",
          "name": "to",
          "type": "address"
        },
        {
          "indexed": true,
          "internalType": "uint256",
          "name": "tokenId",
          "type": "uint256"
        }
      ],
      "name": "Transfer",
      "type": "event"
    },
    {
      "inputs": [
        {
          "internalType": "address",
          "name": "to",
          "type": "address"
        },
        {
          "internalType": "uint256",
          "name": "tokenId",
          "type": "uint256"
        }
      ],
      "name": "approve",
      "outputs": [],
      "stateMutability": "nonpayable",
      "type": "function"
    },
    {
      "inputs": [
        {
          "internalType": "address",
          "name": "owner",
          "type": "address"
        }
      ],
      "name": "balanceOf",
      "outputs": [
        {
          "internalType": "uint256",
          "name": "",
          "type": "uint256"
        }
      ],
      "stateMutability": "view",
      "type": "function"
    },
    {
      "inputs": [
        {
          "internalType": "uint256",
          "name": "tokenId",
          "type": "uint256"
        }
      ],
      "name": "getApproved",
      "outputs": [
        {
          "internalType": "address",
          "name": "",
          "type": "address"
        }
      ],
      "stateMutability": "view",
      "type": "function"
    },
    {
      "inputs": [
        {
          "internalType": "address",
          "name": "owner",
          "type": "address"
        },
        {
          "internalType": "address",
          "name": "operator",
          "type": "address"
        }
      ],
      "name": "isApprovedForAll",
      "outputs": [
        {
          "internalType": "bool",
          "name": "",
          "type": "bool"
        }
      ],
      "stateMutability": "view",
      "type": "function"
    },
    {
      "inputs": [],
      "name": "maxSupply",
      "outputs": [
        {
          "internalType": "uint256",
          "name": "",
          "type": "uint256"
        }
      ],
      "stateMutability": "view",
      "type": "function"
    },
    {
      "inputs": [
        {
          "internalType": "address",
          "name": "to",
          "type": "address"
        },
        {
          "internalType": "uint256",
          "name": "tokenId",
          "type": "uint256"
        },
        {
          "internalType": "string",
          "name": "uri",
          "type": "string"
        }
      ],
      "name": "mint",
      "outputs": [],
      "stateMutability": "nonpayable",
      "type": "function"
    },
    {
      "inputs": [],
      "name": "name",
      "outputs": [
        {
          "internalType": "string",
          "name": "",
          "type": "string"
        }
      ],
      "stateMutability": "view",
      "type": "function"
    },
    {
      "inputs": [],
      "name": "owner",
      "outputs": [
        {
          "internalType": "address",
          "name": "",
          "type": "address"
        }
      ],
      "stateMutability": "view",
      "type": "function"
    },
    {
      "inputs": [
        {
          "internalType": "uint256",
          "name": "tokenId",
          "type": "uint256"
        }
      ],
      "name": "ownerOf",
      "outputs": [
        {
          "internalType": "address",
          "name": "",
          "type": "address"
        }
      ],
      "stateMutability": "view",
      "type": "function"
    },
    {
      "inputs": [],
      "name": "renounceOwnership",
      "outputs": [],
      "stateMutability": "nonpayable",
      "type": "function"
    },
    {
      "inputs": [
        {
          "internalType": "address",
          "name": "from",
          "type": "address"
        },
        {
          "internalType": "address",
          "name": "to",
          "type": "address"
        },
        {
          "internalType": "uint256",
          "name": "tokenId",
          "type": "uint256"
        }
      ],
      "name": "safeTransferFrom",
      "outputs": [],
      "stateMutability": "nonpayable",
      "type": "function"
    },
    {
      "inputs": [
        {
          "internalType": "address",
          "name": "from",
          "type": "address"
        },
        {
          "internalType": "address",
          "name": "to",
          "type": "address"
        },
        {
          "internalType": "uint256",
          "name": "tokenId",
          "type": "uint256"
        },
        {
          "internalType": "bytes",
          "name": "data",
          "type": "bytes"
        }
      ],
      "name": "safeTransferFrom",
      "outputs": [],
      "stateMutability": "nonpayable",
      "type": "function"
    },
    {
      "inputs": [
        {
          "internalType": "address",
          "name": "operator",
          "type": "address"
        },
        {
          "internalType": "bool",
          "name": "approved",
          "type": "bool"
        }
      ],
      "name": "setApprovalForAll",
      "outputs": [],
      "stateMutability": "nonpayable",
      "type": "function"
    },
    {
      "inputs": [
        {
          "internalType": "uint256",
          "name": "tokenId",
          "type": "uint256"
        },
        {
          "internalType": "string",
          "name": "uri",
          "type": "string"
        }
      ],
      "name": "setTokenURI",
      "outputs": [],
      "stateMutability": "nonpayable",
      "type": "function"
    },
    {
      "inputs": [
        {
          "internalType": "bytes4",
          "name": "interfaceId",
          "type": "bytes4"
        }
      ],
      "name": "supportsInterface",
      "outputs": [
        {
          "internalType": "bool",
          "name": "",
          "type": "bool"
        }
      ],
      "stateMutability": "view",
      "type": "function"
    },
    {
      "inputs": [],
      "name": "symbol",
      "outputs": [
        {
          "internalType": "string",
          "name": "",
          "type": "string"
        }
      ],
      "stateMutability": "view",
      "type": "function"
    },
    {
      "inputs": [
        {
          "internalType": "uint256",
          "name": "tokenId",
          "type": "uint256"
        }
      ],
      "name": "tokenURI",
      "outputs": [
        {
          "internalType": "string",
          "name": "",
          "type": "string"
        }
      ],
      "stateMutability": "view",
      "type": "function"
    },
    {
      "inputs": [],
      "name": "totalSupply",
      "outputs": [
        {
          "internalType": "uint256",
          "name": "",
          "type": "uint256"
        }
      ],
      "stateMutability": "view",
      "type": "function"
    },
    {
      "inputs": [
        {
          "internalType": "address",
          "name": "from",
          "type": "address"
        },
        {
          "internalType": "address",
          "name": "to",
          "type": "address"
        },
        {
          "internalType": "uint256",
          "name": "tokenId",
          "type": "uint256"
        }
      ],
      "name": "transferFrom",
      "outputs": [],
      "stateMutability": "nonpayable",
      "type": "function"
    },
    {
      "inputs": [
        {
          "internalType": "address",
          "name": "newOwner",
          "type": "address"
        }
      ],
      "name": "transferOwnership",
      "outputs": [],
      "stateMutability": "nonpayable",
      "type": "function"
    }
  ],
  "bytecode": "0x60806040526103e86008553480156200001757600080fd5b50336040518060400160405280601381526020017f426c6f636b636861696e52616365722043617200000000000000000000000000815250604051806040016040528060038152602001622121a960e91b81525081600090816200007c9190620001c8565b5060016200008b8282620001c8565b5050506001600160a01b038116620000bd57604051631e4fbdf760e01b81526000600482015260240160405180910390fd5b620000c881620000cf565b5062000294565b600680546001600160a01b038381166001600160a01b0319831681179093556040519116919082907f8be0079c531659141344cd1fd0a4f28419497f9722a3daafe3b4186f6b6457e090600090a35050565b634e487b7160e01b600052604160045260246000fd5b600181811c908216806200014c57607f821691505b6020821081036200016d57634e487b7160e01b600052602260045260246000fd5b50919050565b601f821115620001c3576000816000526020600020601f850160051c810160208610156200019e5750805b601f850160051c820191505b81811015620001bf57828155600101620001aa565b5050505b505050565b81516001600160401b03811115620001e457620001e462000121565b620001fc81620001f5845462000137565b8462000173565b602080601f8311600181146200023457600084156200021b5750858301515b600019600386901b1c1916600185901b178555620001bf565b600085815260208120601f198616915b82811015620002655788860151825594840194600190910190840162000244565b5085821015620002845787850151600019600388901b60f8161c191681555b5050505050600190811b01905550565b61132f80620002a46000396000f3fe608060405234801561001057600080fd5b506004361061012c5760003560e01c8063715018a6116100ad578063c87b56dd11610071578063c87b56dd1461026b578063d3fc98641461027e578063d5abeb0114610291578063e985e9c51461029a578063f2fde38b146102ad57600080fd5b8063715018a6146102245780638da5cb5b1461022c57806395d89b411461023d578063a22cb46514610245578063b88d4fde1461025857600080fd5b806318160ddd116100f457806318160ddd146101c157806323b872dd146101d857806342842e0e146101eb5780636352211e146101fe57806370a082311461021157600080fd5b806301ffc9a71461013157806306fdde0314610159578063081812fc1461016e578063095ea7b314610199578063162094c4146101ae575b600080fd5b61014461013f366004610dac565b6102c0565b60405190151581526020015b60405180910390f35b610161610312565b6040516101509190610e16565b61018161017c366004610e29565b6103a4565b6040516001600160a01b039091168152602001610150565b6101ac6101a7366004610e57565b6103cd565b005b6101ac6101bc366004610f2f565b6103dc565b6101ca60075481565b604051908152602001610150565b6101ac6101e6366004610f76565b610477565b6101ac6101f9366004610f76565b610507565b61018161020c366004610e29565b610522565b6101ca61021f366004610fb7565b61052d565b6101ac610575565b6006546001600160a01b0316610181565b610161610589565b6101ac610253366004610fd4565b610598565b6101ac610266366004611012565b6105a3565b610161610279366004610e29565b6105bb565b6101ac61028c366004611092565b6106d2565b6101ca60085481565b6101446102a83660046110eb565b61073b565b6101ac6102bb366004610fb7565b610769565b60006001600160e01b031982166380ac58cd60e01b14806102f157506001600160e01b03198216635b5e139f60e01b145b8061030c57506301ffc9a760e01b6001600160e01b03198316145b92915050565b60606000805461032190611119565b80601f016020809104026020016040519081016040528092919081815260200182805461034d90611119565b801561039a5780601f1061036f5761010080835404028352916020019161039a565b820191906000526020600020905b81548152906001019060200180831161037d57829003601f168201915b5050505050905090565b60006103af826107a7565b506000828152600460205260409020546001600160a01b031661030c565b6103d88282336107e0565b5050565b6103e46107ed565b6040516331a9108f60e11b8152600481018390523090636352211e90602401602060405180830381865afa92505050801561043c575060408051601f3d908101601f1916820190925261043991810190611153565b60015b61045957604051630a14c4b560e41b815260040160405180910390fd5b50600082815260096020526040902061047282826111b8565b505050565b6001600160a01b0382166104a657604051633250574960e11b8152600060048201526024015b60405180910390fd5b60006104b383833361081a565b9050836001600160a01b0316816001600160a01b031614610501576040516364283d7b60e01b81526001600160a01b038086166004830152602482018490528216604482015260640161049d565b50505050565b610472838383604051806020016040528060008152506105a3565b600061030c826107a7565b60006001600160a01b038216610559576040516322718ad960e21b81526000600482015260240161049d565b506001600160a01b031660009081526003602052604090205490565b61057d6107ed565b6105876000610913565b565b60606001805461032190611119565b6103d8338383610965565b6105ae848484610477565b6105013385858585610a04565b6040516331a9108f60e11b8152600481018290526060903090636352211e90602401602060405180830381865afa925050508015610616575060408051601f3d908101601f1916820190925261061391810190611153565b60015b61063357604051630a14c4b560e41b815260040160405180910390fd5b506000828152600960205260409020805461064d90611119565b80601f016020809104026020016040519081016040528092919081815260200182805461067990611119565b80156106c65780601f1061069b576101008083540402835291602001916106c6565b820191906000526020600020905b8154815290600101906020018083116106a957829003601f168201915b50505050509050919050565b6106da6107ed565b600854600754106106fe5760405163c30436e960e01b815260040160405180910390fd5b6107088383610b2f565b600082815260096020526040902061072082826111b8565b506007805490600061073183611278565b9190505550505050565b6001600160a01b03918216600090815260056020908152604080832093909416825291909152205460ff1690565b6107716107ed565b6001600160a01b03811661079b57604051631e4fbdf760e01b81526000600482015260240161049d565b6107a481610913565b50565b6000818152600260205260408120546001600160a01b03168061030c57604051637e27328960e01b81526004810184905260240161049d565b6104728383836001610b49565b6006546001600160a01b031633146105875760405163118cdaa760e01b815233600482015260240161049d565b6000828152600260205260408120546001600160a01b039081169083161561084757610847818486610c4f565b6001600160a01b0381161561088557610864600085600080610b49565b6001600160a01b038116600090815260036020526040902080546000190190555b6001600160a01b038516156108b4576001600160a01b0385166000908152600360205260409020805460010190555b60008481526002602052604080822080546001600160a01b0319166001600160a01b0389811691821790925591518793918516917fddf252ad1be2c89b69c2b068fc378daa952ba7f163c4a11628f55a4df523b3ef91a4949350505050565b600680546001600160a01b038381166001600160a01b0319831681179093556040519116919082907f8be0079c531659141344cd1fd0a4f28419497f9722a3daafe3b4186f6b6457e090600090a35050565b6001600160a01b03821661099757604051630b61174360e31b81526001600160a01b038316600482015260240161049d565b6001600160a01b03838116600081815260056020908152604080832094871680845294825291829020805460ff191686151590811790915591519182527f17307eab39ab6107e8899845ad3d59bd9653f200f220920489ca2b5937696c31910160405180910390a3505050565b6001600160a01b0383163b15610b2857604051630a85bd0160e11b81526001600160a01b0384169063150b7a0290610a4690889088908790879060040161129f565b6020604051808303816000875af1925050508015610a81575060408051601f3d908101601f19168201909252610a7e918101906112dc565b60015b610aea573d808015610aaf576040519150601f19603f3d011682016040523d82523d6000602084013e610ab4565b606091505b508051600003610ae257604051633250574960e11b81526001600160a01b038516600482015260240161049d565b805160208201fd5b6001600160e01b03198116630a85bd0160e11b14610b2657604051633250574960e11b81526001600160a01b038516600482015260240161049d565b505b5050505050565b6103d8828260405180602001604052806000815250610cb3565b8080610b5d57506001600160a01b03821615155b15610c1f576000610b6d846107a7565b90506001600160a01b03831615801590610b995750826001600160a01b0316816001600160a01b031614155b8015610bac5750610baa818461073b565b155b15610bd55760405163a9fbf51f60e01b81526001600160a01b038416600482015260240161049d565b8115610c1d5783856001600160a01b0316826001600160a01b03167f8c5be1e5ebec7d5bd14f71427d1e84f3dd0314c0f7b2291e5b200ac8c7c3b92560405160405180910390a45b505b5050600090815260046020526040902080546001600160a01b0319166001600160a01b0392909216919091179055565b610c5a838383610ccb565b610472576001600160a01b038316610c8857604051637e27328960e01b81526004810182905260240161049d565b60405163177e802f60e01b81526001600160a01b03831660048201526024810182905260440161049d565b610cbd8383610d31565b610472336000858585610a04565b60006001600160a01b03831615801590610d295750826001600160a01b0316846001600160a01b03161480610d055750610d05848461073b565b80610d2957506000828152600460205260409020546001600160a01b038481169116145b949350505050565b6001600160a01b038216610d5b57604051633250574960e11b81526000600482015260240161049d565b6000610d698383600061081a565b90506001600160a01b03811615610472576040516339e3563760e11b81526000600482015260240161049d565b6001600160e01b0319811681146107a457600080fd5b600060208284031215610dbe57600080fd5b8135610dc981610d96565b9392505050565b6000815180845260005b81811015610df657602081850181015186830182015201610dda565b506000602082860101526020601f19601f83011685010191505092915050565b602081526000610dc96020830184610dd0565b600060208284031215610e3b57600080fd5b5035919050565b6001600160a01b03811681146107a457600080fd5b60008060408385031215610e6a57600080fd5b8235610e7581610e42565b946020939093013593505050565b634e487b7160e01b600052604160045260246000fd5b600067ffffffffffffffff80841115610eb457610eb4610e83565b604051601f8501601f19908116603f01168101908282118183101715610edc57610edc610e83565b81604052809350858152868686011115610ef557600080fd5b858560208301376000602087830101525050509392505050565b600082601f830112610f2057600080fd5b610dc983833560208501610e99565b60008060408385031215610f4257600080fd5b82359150602083013567ffffffffffffffff811115610f6057600080fd5b610f6c85828601610f0f565b9150509250929050565b600080600060608486031215610f8b57600080fd5b8335610f9681610e42565b92506020840135610fa681610e42565b929592945050506040919091013590565b600060208284031215610fc957600080fd5b8135610dc981610e42565b60008060408385031215610fe757600080fd5b8235610ff281610e42565b91506020830135801515811461100757600080fd5b809150509250929050565b6000806000806080858703121561102857600080fd5b843561103381610e42565b9350602085013561104381610e42565b925060408501359150606085013567ffffffffffffffff81111561106657600080fd5b8501601f8101871361107757600080fd5b61108687823560208401610e99565b91505092959194509250565b6000806000606084860312156110a757600080fd5b83356110b281610e42565b925060208401359150604084013567ffffffffffffffff8111156110d557600080fd5b6110e186828701610f0f565b9150509250925092565b600080604083850312156110fe57600080fd5b823561110981610e42565b9150602083013561100781610e42565b600181811c9082168061112d57607f821691505b60208210810361114d57634e487b7160e01b600052602260045260246000fd5b50919050565b60006020828403121561116557600080fd5b8151610dc981610e42565b601f821115610472576000816000526020600020601f850160051c810160208610156111995750805b601f850160051c820191505b81811015610b26578281556001016111a5565b815167ffffffffffffffff8111156111d2576111d2610e83565b6111e6816111e08454611119565b84611170565b602080601f83116001811461121b57600084156112035750858301515b600019600386901b1c1916600185901b178555610b26565b600085815260208120601f198616915b8281101561124a5788860151825594840194600190910190840161122b565b50858210156112685787850151600019600388901b60f8161c191681555b5050505050600190811b01905550565b60006001820161129857634e487b7160e01b600052601160045260246000fd5b5060010190565b6001600160a01b03858116825284166020820152604081018390526080606082018190526000906112d290830184610dd0565b9695505050505050565b6000602082840312156112ee57600080fd5b8151610dc981610d9656fea2646970667358221220c0f5e1f0118f932dbe8e3e07ac87a815a34e8f7d5005e8ba1f3ccfdd53224a6964736f6c63430008180033",
  "linkReferences": {},
  "deployedLinkReferences": {}
}