{
  "_format": "hh-sol-artifact-1",
  "contractName": "RaceManager",
  "sourceName": "contracts/RaceManager.sol",
  "abi": [
    {
      "inputs": [
        {
          "internalType": "address",
          "name": "_carNFT",
          "type": "address"
        }
      ],
      "stateMutability": "nonpayable",
      "type": "constructor"
    },
    {
      "inputs": [],
      "name": "AlreadyClaimed",
      "type": "error"
    },
    {
      "inputs": [],
      "name": "AlreadyJoined",
      "type": "error"
    },
    {
      "inputs": [],
      "name": "InsufficientValue",
      "type": "error"
    },
    {
      "inputs": [],
      "name": "InvalidRaceId",
      "type": "error"
    },
    {
      "inputs": [],
      "name": "NotOwner",
      "type": "error"
    },
    {
      "inputs": [],
      "name": "NotWinner",
      "type": "error"
    },
    {
      "inputs": [],
      "name": "RaceNotEnded",
      "type": "error"
    },
    {
      "anonymous": false,
      "inputs": [
        {
          "indexed": false,
          "internalType": "uint256",
          "name": "raceId",
          "type": "uint256"
        },
        {
          "indexed": false,
          "internalType": "address",
          "name": "player",
          "type": "address"
        }
      ],
      "name": "PlayerJoined",
      "type": "event"
    },
    {
      "anonymous": false,
      "inputs": [
        {
          "indexed": false,
          "internalType": "uint256",
          "name": "raceId",
          "type": "uint256"
        },
        {
          "indexed": false,
          "internalType": "address",
          "name": "player",
          "type": "address"
        },
        {
          "indexed": false,
          "internalType": "uint256",
          "name": "amount",
          "type": "uint256"
        }
      ],
      "name": "PrizeClaimed",
      "type": "event"
    },
    {
      "anonymous": false,
      "inputs": [
        {
          "indexed": false,
          "internalType": "uint256",
          "name": "raceId",
          "type": "uint256"
        },
        {
          "indexed": false,
          "internalType": "uint256",
          "name": "entryFee",
          "type": "uint256"
        }
      ],
      "name": "RaceCreated",
      "type": "event"
    },
    {
      "anonymous": false,
      "inputs": [
        {
          "indexed": false,
          "internalType": "uint256",
          "name": "raceId",
          "type": "uint256"
        },
        {
          "indexed": false,
          "internalType": "address",
          "name": "winner",
          "type": "address"
        },
        {
          "indexed": false,
          "internalType": "uint256",
          "name": "prize",
          "type": "uint256"
        }
      ],
      "name": "WinnerDeclared",
      "type": "event"
    },
    {
      "inputs": [],
      "name": "carNFT",
      "outputs": [
        {
          "internalType": "contract IERC721",
          "name": "",
          "type": "address"
        }
      ],
      "stateMutability": "view",
      "type": "function"
    },
    {
      "inputs": [
        {
          "internalType": "uint256",
          "name": "raceId",
          "type": "uint256"
        }
      ],
      "name": "claimPrize",
      "outputs": [],
      "stateMutability": "nonpayable",
      "type": "function"
    },
    {
      "inputs": [
        {
          "internalType": "uint256",
          "name": "_entryFee",
          "type": "uint256"
        }
      ],
      "name": "createRace",
      "outputs": [],
      "stateMutability": "nonpayable",
      "type": "function"
    },
    {
      "inputs": [
        {
          "internalType": "uint256",
          "name": "raceId",
          "type": "uint256"
        },
        {
          "internalType": "address",
          "name": "winnerAddr",
          "type": "address"
        }
      ],
      "name": "declareWinner",
      "outputs": [],
      "stateMutability": "nonpayable",
      "type": "function"
    },
    {
      "inputs": [
        {
          "internalType": "uint256",
          "name": "raceId",
          "type": "uint256"
        }
      ],
      "name": "joinRace",
      "outputs": [],
      "stateMutability": "payable",
      "type": "function"
    },
    {
      "inputs": [],
      "name": "owner",
      "outputs": [
        {
          "internalType": "address",
          "name": "",
          "type": "address"
        }
      ],
      "stateMutability": "view",
      "type": "function"
    },
    {
      "inputs": [],
      "name": "raceCounter",
      "outputs": [
        {
          "internalType": "uint256",
          "name": "",
          "type": "uint256"
        }
      ],
      "stateMutability": "view",
      "type": "function"
    },
    {
      "inputs": [
        {
          "internalType": "uint256",
          "name": "",
          "type": "uint256"
        }
      ],
      "name": "races",
      "outputs": [
        {
          "internalType": "uint256",
          "name": "entryFee",
          "type": "uint256"
        },
        {
          "internalType": "bool",
          "name": "started",
          "type": "bool"
        },
        {
          "internalType": "bool",
          "name": "ended",
          "type": "bool"
        },
        {
          "internalType": "address",
          "name": "winner",
          "type": "address"
        }
      ],
      "stateMutability": "view",
      "type": "function"
    }
  ],
  "bytecode": "0x60a060405234801561001057600080fd5b5060405161079d38038061079d83398101604081905261002f91610052565b6001600160a01b0316608052600280546001600160a01b03191633179055610082565b60006020828403121561006457600080fd5b81516001600160a01b038116811461007b57600080fd5b9392505050565b60805161070061009d60003960006101e901526107006000f3fe60806040526004361061007b5760003560e01c8063a89adff01161004e578063a89adff014610177578063d709815414610197578063e374b097146101b7578063f2f17bf5146101d757600080fd5b806350c9517114610080578063710ada35146100955780637bbc469e146100be5780638da5cb5b1461013f575b600080fd5b61009361008e366004610629565b61020b565b005b3480156100a157600080fd5b506100ab60005481565b6040519081526020015b60405180910390f35b3480156100ca57600080fd5b506101106100d9366004610629565b6001602052600090815260409020805460029091015460ff808216916101008104909116906201000090046001600160a01b031684565b604080519485529215156020850152901515918301919091526001600160a01b031660608201526080016100b5565b34801561014b57600080fd5b5060025461015f906001600160a01b031681565b6040516001600160a01b0390911681526020016100b5565b34801561018357600080fd5b50610093610192366004610629565b61030f565b3480156101a357600080fd5b506100936101b2366004610629565b610383565b3480156101c357600080fd5b506100936101d2366004610642565b610533565b3480156101e357600080fd5b5061015f7f000000000000000000000000000000000000000000000000000000000000000081565b60008181526001602052604081209054821061023a576040516320c07e0160e11b815260040160405180910390fd5b33600090815260038201602052604090205460ff161561026c57604051621d934160e11b815260040160405180910390fd5b8054341461028d5760405163044044a560e21b815260040160405180910390fd5b6001818101805480830182556000918252602080832090910180546001600160a01b03191633908117909155808352600385018252604092839020805460ff19169094179093558151858152908101929092527f87969bc7faf902221a147b95ceba76e011c5efb0339a0a8ee7a2bb82d9cfbbd6910160405180910390a15050565b60008054818061031e83610694565b9091555060008181526001602090815260409182902085815560028101805461ffff1916905582518481529182018690529293507f63083476b085b8e9175986f50ad703551816826bca5360510429f515b407336891015b60405180910390a1505050565b60008181526001602052604090206002810154610100900460ff166103bb5760405163fbf5e9cf60e01b815260040160405180910390fd5b60028101546201000090046001600160a01b031633146103ee576040516330c6392160e11b815260040160405180910390fd5b33600090815260048201602052604090205460ff161561042157604051630c8d9eab60e31b815260040160405180910390fd5b3360008181526004830160205260408120805460ff19166001908117909155830154835491929161045291906106ad565b604051600081818185875af1925050503d806000811461048e576040519150601f19603f3d011682016040523d82523d6000602084013e610493565b606091505b50509050806104da5760405162461bcd60e51b815260206004820152600f60248201526e151c985b9cd9995c8819985a5b1959608a1b604482015260640160405180910390fd5b600182015482547f4aa95f981a8337cb337de335b965507da0879c3b49f799d20058e913f5ad2c269185913391610510916106ad565b604080519384526001600160a01b03909216602084015290820152606001610376565b6002546001600160a01b0316331461055e576040516330cd747160e01b815260040160405180910390fd5b600082815260016020526040812090548310158061058557506002810154610100900460ff165b1561058f57505050565b6001600160a01b038216600090815260038201602052604090205460ff166105ca576040516320c07e0160e11b815260040160405180910390fd5b6002810180546001600160a01b0384166201000002610100600160b01b031990911617610100179055600181015481547f7ed5face07afb2b0e99df53523951350d2a3d4f5d105a0dd2110703efe3995379185918591610510916106ad565b60006020828403121561063b57600080fd5b5035919050565b6000806040838503121561065557600080fd5b8235915060208301356001600160a01b038116811461067357600080fd5b809150509250929050565b634e487b7160e01b600052601160045260246000fd5b6000600182016106a6576106a661067e565b5060010190565b80820281158282048414176106c4576106c461067e565b9291505056fea264697066735822122043953ebed03e94f5038e6d15194f669b1319ad6b5f30f05b225caf8f9ab9126764736f6c63430008180033",
  "linkReferences": {},
  "deployedLinkReferences": {}
}